{
  "contractName": "apptry",
  "abi": [
    {
      "inputs": [],
      "stateMutability": "nonpayable",
      "type": "constructor"
    },
    {
      "inputs": [],
      "name": "manager",
      "outputs": [
        {
          "internalType": "address",
          "name": "",
          "type": "address"
        }
      ],
      "stateMutability": "view",
      "type": "function"
    },
    {
      "inputs": [
        {
          "internalType": "uint256",
          "name": "",
          "type": "uint256"
        }
      ],
      "name": "participants",
      "outputs": [
        {
          "internalType": "address payable",
          "name": "",
          "type": "address"
        }
      ],
      "stateMutability": "view",
      "type": "function"
    },
    {
      "inputs": [],
      "name": "winner",
      "outputs": [
        {
          "internalType": "address payable",
          "name": "",
          "type": "address"
        }
      ],
      "stateMutability": "view",
      "type": "function"
    },
    {
      "stateMutability": "payable",
      "type": "receive"
    },
    {
      "inputs": [],
      "name": "getBalance",
      "outputs": [
        {
          "internalType": "uint256",
          "name": "",
          "type": "uint256"
        }
      ],
      "stateMutability": "view",
      "type": "function"
    },
    {
      "inputs": [],
      "name": "selectWinner",
      "outputs": [],
      "stateMutability": "nonpayable",
      "type": "function"
    },
    {
      "inputs": [],
      "name": "All_participants",
      "outputs": [
        {
          "internalType": "address payable[]",
          "name": "",
          "type": "address[]"
        }
      ],
      "stateMutability": "view",
      "type": "function"
    }
  ],
  "bytecode": "0x608060405234801561001057600080fd5b5033600160006101000a81548173ffffffffffffffffffffffffffffffffffffffff021916908373ffffffffffffffffffffffffffffffffffffffff160217905550610bed806100616000396000f3fe6080604052600436106100595760003560e01c806312065fe01461011257806333a99e041461013d57806335c1d34914610154578063481c6a75146101915780634c647d6b146101bc578063dfbf53ae146101e75761010d565b3661010d57671bc16d674ec800003410156100a9576040517f08c379a00000000000000000000000000000000000000000000000000000000081526004016100a09061074d565b60405180910390fd5b6000339080600181540180825580915050600190039060005260206000200160009091909190916101000a81548173ffffffffffffffffffffffffffffffffffffffff021916908373ffffffffffffffffffffffffffffffffffffffff1602179055005b600080fd5b34801561011e57600080fd5b50610127610212565b6040516101349190610786565b60405180910390f35b34801561014957600080fd5b506101526102aa565b005b34801561016057600080fd5b5061017b600480360381019061017691906107d2565b6104f6565b6040516101889190610840565b60405180910390f35b34801561019d57600080fd5b506101a6610535565b6040516101b3919061087c565b60405180910390f35b3480156101c857600080fd5b506101d161055b565b6040516101de9190610955565b60405180910390f35b3480156101f357600080fd5b506101fc6105e9565b6040516102099190610840565b60405180910390f35b6000600160009054906101000a900473ffffffffffffffffffffffffffffffffffffffff1673ffffffffffffffffffffffffffffffffffffffff163373ffffffffffffffffffffffffffffffffffffffff16146102a4576040517f08c379a000000000000000000000000000000000000000000000000000000000815260040161029b906109e9565b60405180910390fd5b47905090565b600160009054906101000a900473ffffffffffffffffffffffffffffffffffffffff1673ffffffffffffffffffffffffffffffffffffffff163373ffffffffffffffffffffffffffffffffffffffff161461033a576040517f08c379a0000000000000000000000000000000000000000000000000000000008152600401610331906109e9565b60405180910390fd5b60036000805490501015610383576040517f08c379a000000000000000000000000000000000000000000000000000000000815260040161037a90610a7b565b60405180910390fd5b600061038d61060f565b905060008080549050826103a19190610aca565b9050600081815481106103b7576103b6610afb565b5b9060005260206000200160009054906101000a900473ffffffffffffffffffffffffffffffffffffffff16600260006101000a81548173ffffffffffffffffffffffffffffffffffffffff021916908373ffffffffffffffffffffffffffffffffffffffff160217905550600260009054906101000a900473ffffffffffffffffffffffffffffffffffffffff1673ffffffffffffffffffffffffffffffffffffffff166108fc610466610212565b9081150290604051600060405180830381858888f19350505050158015610491573d6000803e3d6000fd5b50600067ffffffffffffffff8111156104ad576104ac610b2a565b5b6040519080825280602002602001820160405280156104db5781602001602082028036833780820191505090505b50600090805190602001906104f1929190610649565b505050565b6000818154811061050657600080fd5b906000526020600020016000915054906101000a900473ffffffffffffffffffffffffffffffffffffffff1681565b600160009054906101000a900473ffffffffffffffffffffffffffffffffffffffff1681565b606060008054806020026020016040519081016040528092919081815260200182805480156105df57602002820191906000526020600020905b8160009054906101000a900473ffffffffffffffffffffffffffffffffffffffff1673ffffffffffffffffffffffffffffffffffffffff1681526020019060010190808311610595575b5050505050905090565b600260009054906101000a900473ffffffffffffffffffffffffffffffffffffffff1681565b6000444260008054905060405160200161062b93929190610b7a565b6040516020818303038152906040528051906020012060001c905090565b8280548282559060005260206000209081019282156106c2579160200282015b828111156106c15782518260006101000a81548173ffffffffffffffffffffffffffffffffffffffff021916908373ffffffffffffffffffffffffffffffffffffffff16021790555091602001919060010190610669565b5b5090506106cf91906106d3565b5090565b5b808211156106ec5760008160009055506001016106d4565b5090565b600082825260208201905092915050565b7f506c6561736520706179206d696e6e696d756d20322065746865720000000000600082015250565b6000610737601b836106f0565b915061074282610701565b602082019050919050565b600060208201905081810360008301526107668161072a565b9050919050565b6000819050919050565b6107808161076d565b82525050565b600060208201905061079b6000830184610777565b92915050565b600080fd5b6107af8161076d565b81146107ba57600080fd5b50565b6000813590506107cc816107a6565b92915050565b6000602082840312156107e8576107e76107a1565b5b60006107f6848285016107bd565b91505092915050565b600073ffffffffffffffffffffffffffffffffffffffff82169050919050565b600061082a826107ff565b9050919050565b61083a8161081f565b82525050565b60006020820190506108556000830184610831565b92915050565b6000610866826107ff565b9050919050565b6108768161085b565b82525050565b6000602082019050610891600083018461086d565b92915050565b600081519050919050565b600082825260208201905092915050565b6000819050602082019050919050565b6108cc8161081f565b82525050565b60006108de83836108c3565b60208301905092915050565b6000602082019050919050565b600061090282610897565b61090c81856108a2565b9350610917836108b3565b8060005b8381101561094857815161092f88826108d2565b975061093a836108ea565b92505060018101905061091b565b5085935050505092915050565b6000602082019050818103600083015261096f81846108f7565b905092915050565b7f4f6f2e2e206974207365656d7320796f7520617265206e6f7420617574686f7260008201527f6973656400000000000000000000000000000000000000000000000000000000602082015250565b60006109d36024836106f0565b91506109de82610977565b604082019050919050565b60006020820190508181036000830152610a02816109c6565b9050919050565b7f5765206172652077616974696e6720666f7220736f6d65206d6f72652070617260008201527f7469636970616e74730000000000000000000000000000000000000000000000602082015250565b6000610a656029836106f0565b9150610a7082610a09565b604082019050919050565b60006020820190508181036000830152610a9481610a58565b9050919050565b7f4e487b7100000000000000000000000000000000000000000000000000000000600052601260045260246000fd5b6000610ad58261076d565b9150610ae08361076d565b925082610af057610aef610a9b565b5b828206905092915050565b7f4e487b7100000000000000000000000000000000000000000000000000000000600052603260045260246000fd5b7f4e487b7100000000000000000000000000000000000000000000000000000000600052604160045260246000fd5b6000819050919050565b610b74610b6f8261076d565b610b59565b82525050565b6000610b868286610b63565b602082019150610b968285610b63565b602082019150610ba68284610b63565b60208201915081905094935050505056fea26469706673582212207983e1ea40ab29675909f71e52b1be1d92232f6c4d719bca2f67cfec15507a3964736f6c63430008110033",
  "immutableReferences": {},
  "source": "//SPDX-License-Identifier: GPL-3.0\r\n\r\npragma solidity >=0.5.0  <=0.9.0;\r\n\r\ncontract apptry\r\n{\r\n    \r\n    address payable[]  public participants;  //payable keyword is used while\r\n                                             //declaring acc addrs for payment \r\n    address public manager;\r\n\r\n    address payable public winner;\r\n\r\n                                             \r\n\r\n\r\nconstructor()             // adding manager to constructor\r\n                          // as he is the one who will controle \r\n                          // so with constructor we can decalre\r\n                          // about mager at first.\r\n{\r\n    manager =msg.sender;  //globale variable\r\n}\r\n\r\n receive() external payable\r\n{    require(msg.value >= 2 ether ,\"Please pay minnimum 2 ether\" );\r\n    participants.push(payable(msg.sender));   \r\n}\r\n\r\nfunction getBalance() public view returns(uint)\r\n{   require(msg.sender == manager , \"Oo.. it seems you are not authorised\");\r\n    return address(this).balance; \r\n}\r\n\r\nfunction random() internal view returns(uint)\r\n{\r\n return uint(keccak256(abi.encodePacked(block.difficulty,block.timestamp,participants.length)));\r\n}\r\n\r\nfunction selectWinner() public \r\n{\r\n     require(msg.sender==manager , \"Oo.. it seems you are not authorised\");     // this msg can be oly sent by manager\r\n     require(participants.length>=3, \"We are waiting for some more participants\");  //minimum participarton    \r\n     uint r = random();   //random function value will get stored in r.\r\n     uint index = r % participants.length; //m percent will divid it, which reminder value be our position on index.\r\n    \r\n     winner = participants[index];\r\n     winner.transfer(getBalance()) ;\r\n     participants=new address payable[](0);    //for reset ////////////tp\r\n\r\n}\r\n\r\n function All_participants() public view returns(address payable[] memory)\r\n {\r\n     return  participants;\r\n }\r\n}",
  "sourcePath": "C:\\Users\\rohit\\OneDrive\\Desktop\\fresh try\\Auto-Lottery app\\contracts\\apptry.sol",
  "compiler": {
    "name": "solc",
    "version": "0.8.17+commit.8df45f5f.Emscripten.clang"
  },
  "schemaVersion": "3.4.10",
  "updatedAt": "2022-11-15T10:36:33.326Z",
  "devdoc": {
    "kind": "dev",
    "methods": {},
    "version": 1
  },
  "userdoc": {
    "kind": "user",
    "methods": {},
    "version": 1
  }
}